{
  "_format": "hh-sol-artifact-1",
  "contractName": "LeftNFT",
  "sourceName": "contracts/LeftNFT.sol",
  "abi": [
    {
      "inputs": [],
      "stateMutability": "nonpayable",
      "type": "constructor"
    },
    {
      "inputs": [
        {
          "internalType": "address",
          "name": "sender",
          "type": "address"
        },
        {
          "internalType": "uint256",
          "name": "tokenId",
          "type": "uint256"
        },
        {
          "internalType": "address",
          "name": "owner",
          "type": "address"
        }
      ],
      "name": "ERC721IncorrectOwner",
      "type": "error"
    },
    {
      "inputs": [
        {
          "internalType": "address",
          "name": "operator",
          "type": "address"
        },
        {
          "internalType": "uint256",
          "name": "tokenId",
          "type": "uint256"
        }
      ],
      "name": "ERC721InsufficientApproval",
      "type": "error"
    },
    {
      "inputs": [
        {
          "internalType": "address",
          "name": "approver",
          "type": "address"
        }
      ],
      "name": "ERC721InvalidApprover",
      "type": "error"
    },
    {
      "inputs": [
        {
          "internalType": "address",
          "name": "operator",
          "type": "address"
        }
      ],
      "name": "ERC721InvalidOperator",
      "type": "error"
    },
    {
      "inputs": [
        {
          "internalType": "address",
          "name": "owner",
          "type": "address"
        }
      ],
      "name": "ERC721InvalidOwner",
      "type": "error"
    },
    {
      "inputs": [
        {
          "internalType": "address",
          "name": "receiver",
          "type": "address"
        }
      ],
      "name": "ERC721InvalidReceiver",
      "type": "error"
    },
    {
      "inputs": [
        {
          "internalType": "address",
          "name": "sender",
          "type": "address"
        }
      ],
      "name": "ERC721InvalidSender",
      "type": "error"
    },
    {
      "inputs": [
        {
          "internalType": "uint256",
          "name": "tokenId",
          "type": "uint256"
        }
      ],
      "name": "ERC721NonexistentToken",
      "type": "error"
    },
    {
      "inputs": [
        {
          "internalType": "address",
          "name": "owner",
          "type": "address"
        }
      ],
      "name": "OwnableInvalidOwner",
      "type": "error"
    },
    {
      "inputs": [
        {
          "internalType": "address",
          "name": "account",
          "type": "address"
        }
      ],
      "name": "OwnableUnauthorizedAccount",
      "type": "error"
    },
    {
      "anonymous": false,
      "inputs": [
        {
          "indexed": true,
          "internalType": "address",
          "name": "owner",
          "type": "address"
        },
        {
          "indexed": true,
          "internalType": "address",
          "name": "approved",
          "type": "address"
        },
        {
          "indexed": true,
          "internalType": "uint256",
          "name": "tokenId",
          "type": "uint256"
        }
      ],
      "name": "Approval",
      "type": "event"
    },
    {
      "anonymous": false,
      "inputs": [
        {
          "indexed": true,
          "internalType": "address",
          "name": "owner",
          "type": "address"
        },
        {
          "indexed": true,
          "internalType": "address",
          "name": "operator",
          "type": "address"
        },
        {
          "indexed": false,
          "internalType": "bool",
          "name": "approved",
          "type": "bool"
        }
      ],
      "name": "ApprovalForAll",
      "type": "event"
    },
    {
      "anonymous": false,
      "inputs": [
        {
          "indexed": true,
          "internalType": "address",
          "name": "previousOwner",
          "type": "address"
        },
        {
          "indexed": true,
          "internalType": "address",
          "name": "newOwner",
          "type": "address"
        }
      ],
      "name": "OwnershipTransferred",
      "type": "event"
    },
    {
      "anonymous": false,
      "inputs": [
        {
          "indexed": true,
          "internalType": "address",
          "name": "from",
          "type": "address"
        },
        {
          "indexed": true,
          "internalType": "address",
          "name": "to",
          "type": "address"
        },
        {
          "indexed": true,
          "internalType": "uint256",
          "name": "tokenId",
          "type": "uint256"
        }
      ],
      "name": "Transfer",
      "type": "event"
    },
    {
      "inputs": [
        {
          "internalType": "address",
          "name": "to",
          "type": "address"
        },
        {
          "internalType": "uint256",
          "name": "tokenId",
          "type": "uint256"
        }
      ],
      "name": "approve",
      "outputs": [],
      "stateMutability": "nonpayable",
      "type": "function"
    },
    {
      "inputs": [
        {
          "internalType": "address",
          "name": "owner",
          "type": "address"
        }
      ],
      "name": "balanceOf",
      "outputs": [
        {
          "internalType": "uint256",
          "name": "",
          "type": "uint256"
        }
      ],
      "stateMutability": "view",
      "type": "function"
    },
    {
      "inputs": [],
      "name": "baseURI",
      "outputs": [
        {
          "internalType": "string",
          "name": "",
          "type": "string"
        }
      ],
      "stateMutability": "view",
      "type": "function"
    },
    {
      "inputs": [
        {
          "internalType": "uint256",
          "name": "tokenId",
          "type": "uint256"
        }
      ],
      "name": "getApproved",
      "outputs": [
        {
          "internalType": "address",
          "name": "",
          "type": "address"
        }
      ],
      "stateMutability": "view",
      "type": "function"
    },
    {
      "inputs": [
        {
          "internalType": "address",
          "name": "owner",
          "type": "address"
        },
        {
          "internalType": "address",
          "name": "operator",
          "type": "address"
        }
      ],
      "name": "isApprovedForAll",
      "outputs": [
        {
          "internalType": "bool",
          "name": "",
          "type": "bool"
        }
      ],
      "stateMutability": "view",
      "type": "function"
    },
    {
      "inputs": [
        {
          "internalType": "address",
          "name": "to",
          "type": "address"
        }
      ],
      "name": "mint",
      "outputs": [],
      "stateMutability": "nonpayable",
      "type": "function"
    },
    {
      "inputs": [],
      "name": "name",
      "outputs": [
        {
          "internalType": "string",
          "name": "",
          "type": "string"
        }
      ],
      "stateMutability": "view",
      "type": "function"
    },
    {
      "inputs": [],
      "name": "nextTokenId",
      "outputs": [
        {
          "internalType": "uint256",
          "name": "",
          "type": "uint256"
        }
      ],
      "stateMutability": "view",
      "type": "function"
    },
    {
      "inputs": [],
      "name": "owner",
      "outputs": [
        {
          "internalType": "address",
          "name": "",
          "type": "address"
        }
      ],
      "stateMutability": "view",
      "type": "function"
    },
    {
      "inputs": [
        {
          "internalType": "uint256",
          "name": "tokenId",
          "type": "uint256"
        }
      ],
      "name": "ownerOf",
      "outputs": [
        {
          "internalType": "address",
          "name": "",
          "type": "address"
        }
      ],
      "stateMutability": "view",
      "type": "function"
    },
    {
      "inputs": [],
      "name": "renounceOwnership",
      "outputs": [],
      "stateMutability": "nonpayable",
      "type": "function"
    },
    {
      "inputs": [
        {
          "internalType": "address",
          "name": "from",
          "type": "address"
        },
        {
          "internalType": "address",
          "name": "to",
          "type": "address"
        },
        {
          "internalType": "uint256",
          "name": "tokenId",
          "type": "uint256"
        }
      ],
      "name": "safeTransferFrom",
      "outputs": [],
      "stateMutability": "nonpayable",
      "type": "function"
    },
    {
      "inputs": [
        {
          "internalType": "address",
          "name": "from",
          "type": "address"
        },
        {
          "internalType": "address",
          "name": "to",
          "type": "address"
        },
        {
          "internalType": "uint256",
          "name": "tokenId",
          "type": "uint256"
        },
        {
          "internalType": "bytes",
          "name": "data",
          "type": "bytes"
        }
      ],
      "name": "safeTransferFrom",
      "outputs": [],
      "stateMutability": "nonpayable",
      "type": "function"
    },
    {
      "inputs": [
        {
          "internalType": "address",
          "name": "operator",
          "type": "address"
        },
        {
          "internalType": "bool",
          "name": "approved",
          "type": "bool"
        }
      ],
      "name": "setApprovalForAll",
      "outputs": [],
      "stateMutability": "nonpayable",
      "type": "function"
    },
    {
      "inputs": [
        {
          "internalType": "bytes4",
          "name": "interfaceId",
          "type": "bytes4"
        }
      ],
      "name": "supportsInterface",
      "outputs": [
        {
          "internalType": "bool",
          "name": "",
          "type": "bool"
        }
      ],
      "stateMutability": "view",
      "type": "function"
    },
    {
      "inputs": [],
      "name": "symbol",
      "outputs": [
        {
          "internalType": "string",
          "name": "",
          "type": "string"
        }
      ],
      "stateMutability": "view",
      "type": "function"
    },
    {
      "inputs": [
        {
          "internalType": "uint256",
          "name": "tokenId",
          "type": "uint256"
        }
      ],
      "name": "tokenURI",
      "outputs": [
        {
          "internalType": "string",
          "name": "",
          "type": "string"
        }
      ],
      "stateMutability": "view",
      "type": "function"
    },
    {
      "inputs": [
        {
          "internalType": "address",
          "name": "from",
          "type": "address"
        },
        {
          "internalType": "address",
          "name": "to",
          "type": "address"
        },
        {
          "internalType": "uint256",
          "name": "tokenId",
          "type": "uint256"
        }
      ],
      "name": "transferFrom",
      "outputs": [],
      "stateMutability": "nonpayable",
      "type": "function"
    },
    {
      "inputs": [
        {
          "internalType": "address",
          "name": "newOwner",
          "type": "address"
        }
      ],
      "name": "transferOwnership",
      "outputs": [],
      "stateMutability": "nonpayable",
      "type": "function"
    }
  ],
  "bytecode": "0x608060405234801561000f575f5ffd5b5033604051806040016040528060088152602001671319599d0813919560c21b815250604051806040016040528060048152602001631313919560e21b815250815f908161005d9190610192565b50600161006a8282610192565b5050506001600160a01b03811661009a57604051631e4fbdf760e01b81525f600482015260240160405180910390fd5b6100a3816100a9565b5061024c565b600680546001600160a01b038381166001600160a01b0319831681179093556040519116919082907f8be0079c531659141344cd1fd0a4f28419497f9722a3daafe3b4186f6b6457e0905f90a35050565b634e487b7160e01b5f52604160045260245ffd5b600181811c9082168061012257607f821691505b60208210810361014057634e487b7160e01b5f52602260045260245ffd5b50919050565b601f82111561018d57805f5260205f20601f840160051c8101602085101561016b5750805b601f840160051c820191505b8181101561018a575f8155600101610177565b50505b505050565b81516001600160401b038111156101ab576101ab6100fa565b6101bf816101b9845461010e565b84610146565b6020601f8211600181146101f1575f83156101da5750848201515b5f19600385901b1c1916600184901b17845561018a565b5f84815260208120601f198516915b828110156102205787850151825560209485019460019092019101610200565b508482101561023d57868401515f19600387901b60f8161c191681555b50505050600190811b01905550565b611178806102595f395ff3fe608060405234801561000f575f5ffd5b506004361061011c575f3560e01c806370a08231116100a9578063a22cb4651161006e578063a22cb4651461023c578063b88d4fde1461024f578063c87b56dd14610262578063e985e9c514610275578063f2fde38b14610288575f5ffd5b806370a08231146101f1578063715018a61461021257806375794a3c1461021a5780638da5cb5b1461022357806395d89b4114610234575f5ffd5b806323b872dd116100ef57806323b872dd1461019d57806342842e0e146101b05780636352211e146101c35780636a627842146101d65780636c0360eb146101e9575f5ffd5b806301ffc9a71461012057806306fdde0314610148578063081812fc1461015d578063095ea7b314610188575b5f5ffd5b61013361012e366004610e01565b61029b565b60405190151581526020015b60405180910390f35b6101506102ec565b60405161013f9190610e4a565b61017061016b366004610e5c565b61037b565b6040516001600160a01b03909116815260200161013f565b61019b610196366004610e8e565b6103a2565b005b61019b6101ab366004610eb6565b6103b1565b61019b6101be366004610eb6565b61043f565b6101706101d1366004610e5c565b61045e565b61019b6101e4366004610ef0565b610468565b610150610493565b6102046101ff366004610ef0565b61051f565b60405190815260200161013f565b61019b610564565b61020460075481565b6006546001600160a01b0316610170565b610150610577565b61019b61024a366004610f09565b610586565b61019b61025d366004610f56565b610591565b610150610270366004610e5c565b6105a9565b610133610283366004611033565b61061a565b61019b610296366004610ef0565b610647565b5f6001600160e01b031982166380ac58cd60e01b14806102cb57506001600160e01b03198216635b5e139f60e01b145b806102e657506301ffc9a760e01b6001600160e01b03198316145b92915050565b60605f80546102fa90611064565b80601f016020809104026020016040519081016040528092919081815260200182805461032690611064565b80156103715780601f1061034857610100808354040283529160200191610371565b820191905f5260205f20905b81548152906001019060200180831161035457829003601f168201915b5050505050905090565b5f61038582610684565b505f828152600460205260409020546001600160a01b03166102e6565b6103ad8282336106bc565b5050565b6001600160a01b0382166103df57604051633250574960e11b81525f60048201526024015b60405180910390fd5b5f6103eb8383336106c9565b9050836001600160a01b0316816001600160a01b031614610439576040516364283d7b60e01b81526001600160a01b03808616600483015260248201849052821660448201526064016103d6565b50505050565b61045983838360405180602001604052805f815250610591565b505050565b5f6102e682610684565b6104706107bb565b61047c816007546107e8565b60078054905f61048b8361109c565b919050555050565b600880546104a090611064565b80601f01602080910402602001604051908101604052809291908181526020018280546104cc90611064565b80156105175780601f106104ee57610100808354040283529160200191610517565b820191905f5260205f20905b8154815290600101906020018083116104fa57829003601f168201915b505050505081565b5f6001600160a01b038216610549576040516322718ad960e21b81525f60048201526024016103d6565b506001600160a01b03165f9081526003602052604090205490565b61056c6107bb565b6105755f610801565b565b6060600180546102fa90611064565b6103ad338383610852565b61059c8484846103b1565b6104393385858585610919565b60606105b482610684565b505f6105ca60408051602081019091525f815290565b90505f8151116105e85760405180602001604052805f815250610613565b806105f284610a41565b6040516020016106039291906110d7565b6040516020818303038152906040525b9392505050565b6001600160a01b039182165f90815260056020908152604080832093909416825291909152205460ff1690565b61064f6107bb565b6001600160a01b03811661067857604051631e4fbdf760e01b81525f60048201526024016103d6565b61068181610801565b50565b5f818152600260205260408120546001600160a01b0316806102e657604051637e27328960e01b8152600481018490526024016103d6565b6104598383836001610ad1565b5f828152600260205260408120546001600160a01b03908116908316156106f5576106f5818486610bd5565b6001600160a01b0381161561072f576107105f855f5f610ad1565b6001600160a01b0381165f90815260036020526040902080545f190190555b6001600160a01b0385161561075d576001600160a01b0385165f908152600360205260409020805460010190555b5f8481526002602052604080822080546001600160a01b0319166001600160a01b0389811691821790925591518793918516917fddf252ad1be2c89b69c2b068fc378daa952ba7f163c4a11628f55a4df523b3ef91a4949350505050565b6006546001600160a01b031633146105755760405163118cdaa760e01b81523360048201526024016103d6565b6103ad828260405180602001604052805f815250610c39565b600680546001600160a01b038381166001600160a01b0319831681179093556040519116919082907f8be0079c531659141344cd1fd0a4f28419497f9722a3daafe3b4186f6b6457e0905f90a35050565b6001600160a01b03831661087b5760405163a9fbf51f60e01b81525f60048201526024016103d6565b6001600160a01b0382166108ad57604051630b61174360e31b81526001600160a01b03831660048201526024016103d6565b6001600160a01b038381165f81815260056020908152604080832094871680845294825291829020805460ff191686151590811790915591519182527f17307eab39ab6107e8899845ad3d59bd9653f200f220920489ca2b5937696c31910160405180910390a3505050565b6001600160a01b0383163b15610a3a57604051630a85bd0160e11b81526001600160a01b0384169063150b7a029061095b9088908890879087906004016110eb565b6020604051808303815f875af1925050508015610995575060408051601f3d908101601f1916820190925261099291810190611127565b60015b6109fc573d8080156109c2576040519150601f19603f3d011682016040523d82523d5f602084013e6109c7565b606091505b5080515f036109f457604051633250574960e11b81526001600160a01b03851660048201526024016103d6565b805160208201fd5b6001600160e01b03198116630a85bd0160e11b14610a3857604051633250574960e11b81526001600160a01b03851660048201526024016103d6565b505b5050505050565b60605f610a4d83610c50565b60010190505f8167ffffffffffffffff811115610a6c57610a6c610f42565b6040519080825280601f01601f191660200182016040528015610a96576020820181803683370190505b5090508181016020015b5f19016f181899199a1a9b1b9c1cb0b131b232b360811b600a86061a8153600a8504945084610aa057509392505050565b8080610ae557506001600160a01b03821615155b15610ba6575f610af484610684565b90506001600160a01b03831615801590610b205750826001600160a01b0316816001600160a01b031614155b8015610b335750610b31818461061a565b155b15610b5c5760405163a9fbf51f60e01b81526001600160a01b03841660048201526024016103d6565b8115610ba45783856001600160a01b0316826001600160a01b03167f8c5be1e5ebec7d5bd14f71427d1e84f3dd0314c0f7b2291e5b200ac8c7c3b92560405160405180910390a45b505b50505f90815260046020526040902080546001600160a01b0319166001600160a01b0392909216919091179055565b610be0838383610d27565b610459576001600160a01b038316610c0e57604051637e27328960e01b8152600481018290526024016103d6565b60405163177e802f60e01b81526001600160a01b0383166004820152602481018290526044016103d6565b610c438383610d8b565b610459335f858585610919565b5f8072184f03e93ff9f4daa797ed6e38ed64bf6a1f0160401b8310610c8e5772184f03e93ff9f4daa797ed6e38ed64bf6a1f0160401b830492506040015b6d04ee2d6d415b85acef81000000008310610cba576d04ee2d6d415b85acef8100000000830492506020015b662386f26fc100008310610cd857662386f26fc10000830492506010015b6305f5e1008310610cf0576305f5e100830492506008015b6127108310610d0457612710830492506004015b60648310610d16576064830492506002015b600a83106102e65760010192915050565b5f6001600160a01b03831615801590610d835750826001600160a01b0316846001600160a01b03161480610d605750610d60848461061a565b80610d8357505f828152600460205260409020546001600160a01b038481169116145b949350505050565b6001600160a01b038216610db457604051633250574960e11b81525f60048201526024016103d6565b5f610dc083835f6106c9565b90506001600160a01b03811615610459576040516339e3563760e11b81525f60048201526024016103d6565b6001600160e01b031981168114610681575f5ffd5b5f60208284031215610e11575f5ffd5b813561061381610dec565b5f81518084528060208401602086015e5f602082860101526020601f19601f83011685010191505092915050565b602081525f6106136020830184610e1c565b5f60208284031215610e6c575f5ffd5b5035919050565b80356001600160a01b0381168114610e89575f5ffd5b919050565b5f5f60408385031215610e9f575f5ffd5b610ea883610e73565b946020939093013593505050565b5f5f5f60608486031215610ec8575f5ffd5b610ed184610e73565b9250610edf60208501610e73565b929592945050506040919091013590565b5f60208284031215610f00575f5ffd5b61061382610e73565b5f5f60408385031215610f1a575f5ffd5b610f2383610e73565b915060208301358015158114610f37575f5ffd5b809150509250929050565b634e487b7160e01b5f52604160045260245ffd5b5f5f5f5f60808587031215610f69575f5ffd5b610f7285610e73565b9350610f8060208601610e73565b925060408501359150606085013567ffffffffffffffff811115610fa2575f5ffd5b8501601f81018713610fb2575f5ffd5b803567ffffffffffffffff811115610fcc57610fcc610f42565b604051601f8201601f19908116603f0116810167ffffffffffffffff81118282101715610ffb57610ffb610f42565b604052818152828201602001891015611012575f5ffd5b816020840160208301375f6020838301015280935050505092959194509250565b5f5f60408385031215611044575f5ffd5b61104d83610e73565b915061105b60208401610e73565b90509250929050565b600181811c9082168061107857607f821691505b60208210810361109657634e487b7160e01b5f52602260045260245ffd5b50919050565b5f600182016110b957634e487b7160e01b5f52601160045260245ffd5b5060010190565b5f81518060208401855e5f93019283525090919050565b5f610d836110e583866110c0565b846110c0565b6001600160a01b03858116825284166020820152604081018390526080606082018190525f9061111d90830184610e1c565b9695505050505050565b5f60208284031215611137575f5ffd5b815161061381610dec56fea26469706673582212201ddad06033ae3aec189a4b305cdeec263ab288a66aea901d5a55dcf69ce2cc5964736f6c634300081c0033",
  "linkReferences": {},
  "deployedLinkReferences": {}
}